{
  "contractName": "ManagerOgani",
  "abi": [
    {
      "anonymous": false,
      "inputs": [
        {
          "indexed": true,
          "internalType": "address",
          "name": "previousOwner",
          "type": "address"
        },
        {
          "indexed": true,
          "internalType": "address",
          "name": "newOwner",
          "type": "address"
        }
      ],
      "name": "OwnershipTransferred",
      "type": "event"
    },
    {
      "stateMutability": "payable",
      "type": "fallback",
      "payable": true
    },
    {
      "inputs": [
        {
          "internalType": "uint256",
          "name": "",
          "type": "uint256"
        }
      ],
      "name": "AddressUsers",
      "outputs": [
        {
          "internalType": "address",
          "name": "",
          "type": "address"
        }
      ],
      "stateMutability": "view",
      "type": "function",
      "constant": true
    },
    {
      "inputs": [
        {
          "internalType": "address",
          "name": "",
          "type": "address"
        }
      ],
      "name": "IndexUsers",
      "outputs": [
        {
          "internalType": "uint256",
          "name": "",
          "type": "uint256"
        }
      ],
      "stateMutability": "view",
      "type": "function",
      "constant": true
    },
    {
      "inputs": [
        {
          "internalType": "address",
          "name": "newManager",
          "type": "address"
        }
      ],
      "name": "addManager",
      "outputs": [],
      "stateMutability": "nonpayable",
      "type": "function"
    },
    {
      "inputs": [],
      "name": "getAllManagement",
      "outputs": [
        {
          "internalType": "address[]",
          "name": "",
          "type": "address[]"
        }
      ],
      "stateMutability": "view",
      "type": "function",
      "constant": true
    },
    {
      "inputs": [
        {
          "internalType": "address",
          "name": "",
          "type": "address"
        }
      ],
      "name": "includeUser",
      "outputs": [
        {
          "internalType": "bool",
          "name": "",
          "type": "bool"
        }
      ],
      "stateMutability": "view",
      "type": "function",
      "constant": true
    },
    {
      "inputs": [],
      "name": "isOwner",
      "outputs": [
        {
          "internalType": "bool",
          "name": "",
          "type": "bool"
        }
      ],
      "stateMutability": "view",
      "type": "function",
      "constant": true
    },
    {
      "inputs": [
        {
          "internalType": "uint256",
          "name": "",
          "type": "uint256"
        }
      ],
      "name": "listPayments",
      "outputs": [
        {
          "internalType": "string",
          "name": "idProduct",
          "type": "string"
        },
        {
          "internalType": "uint256",
          "name": "totalPayment",
          "type": "uint256"
        },
        {
          "internalType": "address",
          "name": "supplier",
          "type": "address"
        },
        {
          "internalType": "address",
          "name": "currentAdmin",
          "type": "address"
        }
      ],
      "stateMutability": "view",
      "type": "function",
      "constant": true
    },
    {
      "inputs": [
        {
          "internalType": "uint256",
          "name": "",
          "type": "uint256"
        }
      ],
      "name": "listUserOrder",
      "outputs": [
        {
          "internalType": "string",
          "name": "idOrder",
          "type": "string"
        },
        {
          "internalType": "uint256",
          "name": "totalPayment",
          "type": "uint256"
        },
        {
          "internalType": "address",
          "name": "userAddress",
          "type": "address"
        }
      ],
      "stateMutability": "view",
      "type": "function",
      "constant": true
    },
    {
      "inputs": [
        {
          "internalType": "uint256",
          "name": "",
          "type": "uint256"
        }
      ],
      "name": "managementAddress",
      "outputs": [
        {
          "internalType": "address",
          "name": "",
          "type": "address"
        }
      ],
      "stateMutability": "view",
      "type": "function",
      "constant": true
    },
    {
      "inputs": [
        {
          "internalType": "address",
          "name": "",
          "type": "address"
        }
      ],
      "name": "managementList",
      "outputs": [
        {
          "internalType": "bool",
          "name": "",
          "type": "bool"
        }
      ],
      "stateMutability": "view",
      "type": "function",
      "constant": true
    },
    {
      "inputs": [],
      "name": "numberOfManager",
      "outputs": [
        {
          "internalType": "uint256",
          "name": "",
          "type": "uint256"
        }
      ],
      "stateMutability": "view",
      "type": "function",
      "constant": true
    },
    {
      "inputs": [],
      "name": "orderNumber",
      "outputs": [
        {
          "internalType": "uint256",
          "name": "",
          "type": "uint256"
        }
      ],
      "stateMutability": "view",
      "type": "function",
      "constant": true
    },
    {
      "inputs": [],
      "name": "owner",
      "outputs": [
        {
          "internalType": "address",
          "name": "",
          "type": "address"
        }
      ],
      "stateMutability": "view",
      "type": "function",
      "constant": true
    },
    {
      "inputs": [],
      "name": "renounceOwnership",
      "outputs": [],
      "stateMutability": "nonpayable",
      "type": "function"
    },
    {
      "inputs": [],
      "name": "transactionCount",
      "outputs": [
        {
          "internalType": "uint256",
          "name": "",
          "type": "uint256"
        }
      ],
      "stateMutability": "view",
      "type": "function",
      "constant": true
    },
    {
      "inputs": [
        {
          "internalType": "address",
          "name": "newOwner",
          "type": "address"
        }
      ],
      "name": "transferOwnership",
      "outputs": [],
      "stateMutability": "nonpayable",
      "type": "function"
    },
    {
      "stateMutability": "payable",
      "type": "receive",
      "payable": true
    },
    {
      "inputs": [],
      "name": "getBalance",
      "outputs": [
        {
          "internalType": "uint256",
          "name": "",
          "type": "uint256"
        }
      ],
      "stateMutability": "view",
      "type": "function",
      "constant": true
    },
    {
      "inputs": [
        {
          "internalType": "string",
          "name": "_idOrder",
          "type": "string"
        }
      ],
      "name": "userPaymentOrder",
      "outputs": [],
      "stateMutability": "payable",
      "type": "function",
      "payable": true
    },
    {
      "inputs": [],
      "name": "getAllPaymentOrder",
      "outputs": [
        {
          "components": [
            {
              "internalType": "string",
              "name": "idOrder",
              "type": "string"
            },
            {
              "internalType": "uint256",
              "name": "totalPayment",
              "type": "uint256"
            },
            {
              "internalType": "address",
              "name": "userAddress",
              "type": "address"
            }
          ],
          "internalType": "struct ManagerOgani.UserPayment[]",
          "name": "",
          "type": "tuple[]"
        }
      ],
      "stateMutability": "view",
      "type": "function",
      "constant": true
    },
    {
      "inputs": [
        {
          "internalType": "string",
          "name": "_idProduct",
          "type": "string"
        },
        {
          "internalType": "address",
          "name": "_supplier",
          "type": "address"
        }
      ],
      "name": "transferToSupplier",
      "outputs": [],
      "stateMutability": "payable",
      "type": "function",
      "payable": true
    },
    {
      "inputs": [
        {
          "internalType": "uint256",
          "name": "index",
          "type": "uint256"
        }
      ],
      "name": "getTransaction",
      "outputs": [
        {
          "components": [
            {
              "internalType": "string",
              "name": "idProduct",
              "type": "string"
            },
            {
              "internalType": "uint256",
              "name": "totalPayment",
              "type": "uint256"
            },
            {
              "internalType": "address",
              "name": "supplier",
              "type": "address"
            },
            {
              "internalType": "address",
              "name": "currentAdmin",
              "type": "address"
            }
          ],
          "internalType": "struct ManagerOgani.PaymentObject",
          "name": "",
          "type": "tuple"
        }
      ],
      "stateMutability": "view",
      "type": "function",
      "constant": true
    },
    {
      "inputs": [],
      "name": "getAllTransaction",
      "outputs": [
        {
          "components": [
            {
              "internalType": "string",
              "name": "idProduct",
              "type": "string"
            },
            {
              "internalType": "uint256",
              "name": "totalPayment",
              "type": "uint256"
            },
            {
              "internalType": "address",
              "name": "supplier",
              "type": "address"
            },
            {
              "internalType": "address",
              "name": "currentAdmin",
              "type": "address"
            }
          ],
          "internalType": "struct ManagerOgani.PaymentObject[]",
          "name": "",
          "type": "tuple[]"
        }
      ],
      "stateMutability": "view",
      "type": "function",
      "constant": true
    },
    {
      "inputs": [
        {
          "internalType": "address",
          "name": "_to",
          "type": "address"
        }
      ],
      "name": "withdraw",
      "outputs": [],
      "stateMutability": "payable",
      "type": "function",
      "payable": true
    },
    {
      "inputs": [
        {
          "internalType": "address payable",
          "name": "_to",
          "type": "address"
        }
      ],
      "name": "withdrawMoneyTo",
      "outputs": [],
      "stateMutability": "nonpayable",
      "type": "function"
    }
  ],
  "bytecode": "0x60806040523480156200001157600080fd5b50336000806101000a81548173ffffffffffffffffffffffffffffffffffffffff021916908373ffffffffffffffffffffffffffffffffffffffff1602179055506200006333620000e460201b60201c565b60008054906101000a900473ffffffffffffffffffffffffffffffffffffffff1673ffffffffffffffffffffffffffffffffffffffff16600073ffffffffffffffffffffffffffffffffffffffff167f8be0079c531659141344cd1fd0a4f28419497f9722a3daafe3b4186f6b6457e060405160405180910390a362000362565b620000f46200020160201b60201c565b62000136576040517f08c379a00000000000000000000000000000000000000000000000000000000081526004016200012d90620002b9565b60405180910390fd5b6000600360008154809291906200014d9062000314565b919050559050816001600083815260200190815260200160002060006101000a81548173ffffffffffffffffffffffffffffffffffffffff021916908373ffffffffffffffffffffffffffffffffffffffff1602179055506001600260008473ffffffffffffffffffffffffffffffffffffffff1673ffffffffffffffffffffffffffffffffffffffff16815260200190815260200160002060006101000a81548160ff0219169083151502179055505050565b60008060009054906101000a900473ffffffffffffffffffffffffffffffffffffffff1673ffffffffffffffffffffffffffffffffffffffff163373ffffffffffffffffffffffffffffffffffffffff1614905090565b600082825260208201905092915050565b7f53656e646572206e6f7420617574686f72697a65642e00000000000000000000600082015250565b6000620002a160168362000258565b9150620002ae8262000269565b602082019050919050565b60006020820190508181036000830152620002d48162000292565b9050919050565b7f4e487b7100000000000000000000000000000000000000000000000000000000600052601160045260246000fd5b6000819050919050565b600062000321826200030a565b91507fffffffffffffffffffffffffffffffffffffffffffffffffffffffffffffffff821415620003575762000356620002db565b5b600182019050919050565b61257880620003726000396000f3fe60806040526004361061014f5760003560e01c80638da5cb5b116100b6578063b04dd81b1161006f578063b04dd81b146104ab578063b74afc8e146104d6578063b77bf60014610513578063bb015a401461053e578063f2fde38b1461055a578063fd73ca1e1461058357610156565b80638da5cb5b146103715780638f32d59b1461039c57806399013e94146103c75780639a91f375146104065780639f0673fe14610443578063add6415d1461048057610156565b80634efc7866116101085780634efc78661461027a57806351cff8d9146102a557806365077a98146102c1578063715018a6146102dd578063894a89ed146102f45780638d3c8ab61461033157610156565b806306e2bbe3146101585780630ff8d8a5146101955780631020c6ab146101be57806312065fe0146101e95780632d06177a1461021457806333ea3dc81461023d57610156565b3661015657005b005b34801561016457600080fd5b5061017f600480360381019061017a9190611a7f565b6105ae565b60405161018c9190611aed565b60405180910390f35b3480156101a157600080fd5b506101bc60048036038101906101b79190611b46565b6105e1565b005b3480156101ca57600080fd5b506101d3610632565b6040516101e09190611c31565b60405180910390f35b3480156101f557600080fd5b506101fe610732565b60405161020b9190611c62565b60405180910390f35b34801561022057600080fd5b5061023b60048036038101906102369190611ca9565b61073a565b005b34801561024957600080fd5b50610264600480360381019061025f9190611a7f565b61084a565b6040516102719190611de1565b60405180910390f35b34801561028657600080fd5b5061028f610a7a565b60405161029c9190611c62565b60405180910390f35b6102bf60048036038101906102ba9190611ca9565b610a80565b005b6102db60048036038101906102d69190611f38565b610aca565b005b3480156102e957600080fd5b506102f2610e06565b005b34801561030057600080fd5b5061031b60048036038101906103169190611ca9565b610f0b565b6040516103289190611f9c565b60405180910390f35b34801561033d57600080fd5b5061035860048036038101906103539190611a7f565b610f2b565b6040516103689493929190612001565b60405180910390f35b34801561037d57600080fd5b50610386611023565b6040516103939190611aed565b60405180910390f35b3480156103a857600080fd5b506103b161104c565b6040516103be9190611f9c565b60405180910390f35b3480156103d357600080fd5b506103ee60048036038101906103e99190611a7f565b6110a3565b6040516103fd9392919061204d565b60405180910390f35b34801561041257600080fd5b5061042d60048036038101906104289190611a7f565b611175565b60405161043a9190611aed565b60405180910390f35b34801561044f57600080fd5b5061046a60048036038101906104659190611ca9565b6111a8565b6040516104779190611c62565b60405180910390f35b34801561048c57600080fd5b506104956111c0565b6040516104a291906121b0565b60405180910390f35b3480156104b757600080fd5b506104c06113ce565b6040516104cd9190611c62565b60405180910390f35b3480156104e257600080fd5b506104fd60048036038101906104f89190611ca9565b6113d4565b60405161050a9190611f9c565b60405180910390f35b34801561051f57600080fd5b506105286113f4565b6040516105359190611c62565b60405180910390f35b610558600480360381019061055391906121d2565b6113fa565b005b34801561056657600080fd5b50610581600480360381019061057c9190611ca9565b611605565b005b34801561058f57600080fd5b50610598611658565b6040516105a59190612340565b60405180910390f35b60096020528060005260406000206000915054906101000a900473ffffffffffffffffffffffffffffffffffffffff1681565b8073ffffffffffffffffffffffffffffffffffffffff166108fc610603610732565b9081150290604051600060405180830381858888f1935050505015801561062e573d6000803e3d6000fd5b5050565b6060600060035467ffffffffffffffff81111561065257610651611e0d565b5b6040519080825280602002602001820160405280156106805781602001602082028036833780820191505090505b50905060005b60035481101561072a5760006001600083815260200190815260200160002060009054906101000a900473ffffffffffffffffffffffffffffffffffffffff169050808383815181106106dc576106db612362565b5b602002602001019073ffffffffffffffffffffffffffffffffffffffff16908173ffffffffffffffffffffffffffffffffffffffff1681525050508080610722906123c0565b915050610686565b508091505090565b600047905090565b61074261104c565b610781576040517f08c379a000000000000000000000000000000000000000000000000000000000815260040161077890612455565b60405180910390fd5b600060036000815480929190610796906123c0565b919050559050816001600083815260200190815260200160002060006101000a81548173ffffffffffffffffffffffffffffffffffffffff021916908373ffffffffffffffffffffffffffffffffffffffff1602179055506001600260008473ffffffffffffffffffffffffffffffffffffffff1673ffffffffffffffffffffffffffffffffffffffff16815260200190815260200160002060006101000a81548160ff0219169083151502179055505050565b610852611907565b600060045467ffffffffffffffff8111156108705761086f611e0d565b5b6040519080825280602002602001820160405280156108a957816020015b610896611907565b81526020019060019003908161088e5790505b50905060005b600454811015610a56576000600660008381526020019081526020016000209050806040518060800160405290816000820180546108ec906124a4565b80601f0160208091040260200160405190810160405280929190818152602001828054610918906124a4565b80156109655780601f1061093a57610100808354040283529160200191610965565b820191906000526020600020905b81548152906001019060200180831161094857829003601f168201915b50505050508152602001600182015481526020016002820160009054906101000a900473ffffffffffffffffffffffffffffffffffffffff1673ffffffffffffffffffffffffffffffffffffffff1673ffffffffffffffffffffffffffffffffffffffff1681526020016003820160009054906101000a900473ffffffffffffffffffffffffffffffffffffffff1673ffffffffffffffffffffffffffffffffffffffff1673ffffffffffffffffffffffffffffffffffffffff1681525050838381518110610a3757610a36612362565b5b6020026020010181905250508080610a4e906123c0565b9150506108af565b50808381518110610a6a57610a69612362565b5b6020026020010151915050919050565b60035481565b8073ffffffffffffffffffffffffffffffffffffffff166108fc349081150290604051600060405180830381858888f19350505050158015610ac6573d6000803e3d6000fd5b5050565b600060405180606001604052808381526020013481526020013373ffffffffffffffffffffffffffffffffffffffff168152509050600a60003373ffffffffffffffffffffffffffffffffffffffff1673ffffffffffffffffffffffffffffffffffffffff16815260200190815260200160002060009054906101000a900460ff16610ce457600060056000815480929190610b65906123c0565b9190505590506001600a60003373ffffffffffffffffffffffffffffffffffffffff1673ffffffffffffffffffffffffffffffffffffffff16815260200190815260200160002060006101000a81548160ff02191690831515021790555080600860003373ffffffffffffffffffffffffffffffffffffffff1673ffffffffffffffffffffffffffffffffffffffff16815260200190815260200160002081905550336009600083815260200190815260200160002060006101000a81548173ffffffffffffffffffffffffffffffffffffffff021916908373ffffffffffffffffffffffffffffffffffffffff16021790555081600760008381526020019081526020016000206000820151816000019080519060200190610c8992919061195b565b506020820151816001015560408201518160020160006101000a81548173ffffffffffffffffffffffffffffffffffffffff021916908373ffffffffffffffffffffffffffffffffffffffff16021790555090505050610e02565b600080600090505b600554811015610d7a5760006009600083815260200190815260200160002060009054906101000a900473ffffffffffffffffffffffffffffffffffffffff1690503373ffffffffffffffffffffffffffffffffffffffff168173ffffffffffffffffffffffffffffffffffffffff161415610d66578192505b508080610d72906123c0565b915050610cec565b5081600760008381526020019081526020016000206000820151816000019080519060200190610dab92919061195b565b506020820151816001015560408201518160020160006101000a81548173ffffffffffffffffffffffffffffffffffffffff021916908373ffffffffffffffffffffffffffffffffffffffff160217905550905050505b5050565b610e0e61104c565b610e4d576040517f08c379a0000000000000000000000000000000000000000000000000000000008152600401610e4490612455565b60405180910390fd5b600073ffffffffffffffffffffffffffffffffffffffff1660008054906101000a900473ffffffffffffffffffffffffffffffffffffffff1673ffffffffffffffffffffffffffffffffffffffff167f8be0079c531659141344cd1fd0a4f28419497f9722a3daafe3b4186f6b6457e060405160405180910390a360008060006101000a81548173ffffffffffffffffffffffffffffffffffffffff021916908373ffffffffffffffffffffffffffffffffffffffff160217905550565b60026020528060005260406000206000915054906101000a900460ff1681565b6006602052806000526040600020600091509050806000018054610f4e906124a4565b80601f0160208091040260200160405190810160405280929190818152602001828054610f7a906124a4565b8015610fc75780601f10610f9c57610100808354040283529160200191610fc7565b820191906000526020600020905b815481529060010190602001808311610faa57829003601f168201915b5050505050908060010154908060020160009054906101000a900473ffffffffffffffffffffffffffffffffffffffff16908060030160009054906101000a900473ffffffffffffffffffffffffffffffffffffffff16905084565b60008060009054906101000a900473ffffffffffffffffffffffffffffffffffffffff16905090565b60008060009054906101000a900473ffffffffffffffffffffffffffffffffffffffff1673ffffffffffffffffffffffffffffffffffffffff163373ffffffffffffffffffffffffffffffffffffffff1614905090565b60076020528060005260406000206000915090508060000180546110c6906124a4565b80601f01602080910402602001604051908101604052809291908181526020018280546110f2906124a4565b801561113f5780601f106111145761010080835404028352916020019161113f565b820191906000526020600020905b81548152906001019060200180831161112257829003601f168201915b5050505050908060010154908060020160009054906101000a900473ffffffffffffffffffffffffffffffffffffffff16905083565b60016020528060005260406000206000915054906101000a900473ffffffffffffffffffffffffffffffffffffffff1681565b60086020528060005260406000206000915090505481565b6060600060045467ffffffffffffffff8111156111e0576111df611e0d565b5b60405190808252806020026020018201604052801561121957816020015b611206611907565b8152602001906001900390816111fe5790505b50905060005b6004548110156113c65760006006600083815260200190815260200160002090508060405180608001604052908160008201805461125c906124a4565b80601f0160208091040260200160405190810160405280929190818152602001828054611288906124a4565b80156112d55780601f106112aa576101008083540402835291602001916112d5565b820191906000526020600020905b8154815290600101906020018083116112b857829003601f168201915b50505050508152602001600182015481526020016002820160009054906101000a900473ffffffffffffffffffffffffffffffffffffffff1673ffffffffffffffffffffffffffffffffffffffff1673ffffffffffffffffffffffffffffffffffffffff1681526020016003820160009054906101000a900473ffffffffffffffffffffffffffffffffffffffff1673ffffffffffffffffffffffffffffffffffffffff1673ffffffffffffffffffffffffffffffffffffffff16815250508383815181106113a7576113a6612362565b5b60200260200101819052505080806113be906123c0565b91505061121f565b508091505090565b60055481565b600a6020528060005260406000206000915054906101000a900460ff1681565b60045481565b33600260008273ffffffffffffffffffffffffffffffffffffffff1673ffffffffffffffffffffffffffffffffffffffff16815260200190815260200160002060009054906101000a900460ff16611487576040517f08c379a000000000000000000000000000000000000000000000000000000000815260040161147e90612522565b60405180910390fd5b60405180608001604052808481526020013481526020018373ffffffffffffffffffffffffffffffffffffffff1681526020013373ffffffffffffffffffffffffffffffffffffffff16815250600660006004548152602001908152602001600020600082015181600001908051906020019061150592919061195b565b506020820151816001015560408201518160020160006101000a81548173ffffffffffffffffffffffffffffffffffffffff021916908373ffffffffffffffffffffffffffffffffffffffff16021790555060608201518160030160006101000a81548173ffffffffffffffffffffffffffffffffffffffff021916908373ffffffffffffffffffffffffffffffffffffffff160217905550905050600460008154809291906115b4906123c0565b91905055508173ffffffffffffffffffffffffffffffffffffffff166108fc349081150290604051600060405180830381858888f193505050501580156115ff573d6000803e3d6000fd5b50505050565b61160d61104c565b61164c576040517f08c379a000000000000000000000000000000000000000000000000000000000815260040161164390612455565b60405180910390fd5b61165581611810565b50565b6060600060055467ffffffffffffffff81111561167857611677611e0d565b5b6040519080825280602002602001820160405280156116b157816020015b61169e6119e1565b8152602001906001900390816116965790505b50905060005b600554811015611808576000600760008381526020019081526020016000209050806040518060600160405290816000820180546116f4906124a4565b80601f0160208091040260200160405190810160405280929190818152602001828054611720906124a4565b801561176d5780601f106117425761010080835404028352916020019161176d565b820191906000526020600020905b81548152906001019060200180831161175057829003601f168201915b50505050508152602001600182015481526020016002820160009054906101000a900473ffffffffffffffffffffffffffffffffffffffff1673ffffffffffffffffffffffffffffffffffffffff1673ffffffffffffffffffffffffffffffffffffffff16815250508383815181106117e9576117e8612362565b5b6020026020010181905250508080611800906123c0565b9150506116b7565b508091505090565b600073ffffffffffffffffffffffffffffffffffffffff168173ffffffffffffffffffffffffffffffffffffffff16141561184a57600080fd5b8073ffffffffffffffffffffffffffffffffffffffff1660008054906101000a900473ffffffffffffffffffffffffffffffffffffffff1673ffffffffffffffffffffffffffffffffffffffff167f8be0079c531659141344cd1fd0a4f28419497f9722a3daafe3b4186f6b6457e060405160405180910390a3806000806101000a81548173ffffffffffffffffffffffffffffffffffffffff021916908373ffffffffffffffffffffffffffffffffffffffff16021790555050565b60405180608001604052806060815260200160008152602001600073ffffffffffffffffffffffffffffffffffffffff168152602001600073ffffffffffffffffffffffffffffffffffffffff1681525090565b828054611967906124a4565b90600052602060002090601f01602090048101928261198957600085556119d0565b82601f106119a257805160ff19168380011785556119d0565b828001600101855582156119d0579182015b828111156119cf5782518255916020019190600101906119b4565b5b5090506119dd9190611a18565b5090565b60405180606001604052806060815260200160008152602001600073ffffffffffffffffffffffffffffffffffffffff1681525090565b5b80821115611a31576000816000905550600101611a19565b5090565b6000604051905090565b600080fd5b600080fd5b6000819050919050565b611a5c81611a49565b8114611a6757600080fd5b50565b600081359050611a7981611a53565b92915050565b600060208284031215611a9557611a94611a3f565b5b6000611aa384828501611a6a565b91505092915050565b600073ffffffffffffffffffffffffffffffffffffffff82169050919050565b6000611ad782611aac565b9050919050565b611ae781611acc565b82525050565b6000602082019050611b026000830184611ade565b92915050565b6000611b1382611aac565b9050919050565b611b2381611b08565b8114611b2e57600080fd5b50565b600081359050611b4081611b1a565b92915050565b600060208284031215611b5c57611b5b611a3f565b5b6000611b6a84828501611b31565b91505092915050565b600081519050919050565b600082825260208201905092915050565b6000819050602082019050919050565b611ba881611acc565b82525050565b6000611bba8383611b9f565b60208301905092915050565b6000602082019050919050565b6000611bde82611b73565b611be88185611b7e565b9350611bf383611b8f565b8060005b83811015611c24578151611c0b8882611bae565b9750611c1683611bc6565b925050600181019050611bf7565b5085935050505092915050565b60006020820190508181036000830152611c4b8184611bd3565b905092915050565b611c5c81611a49565b82525050565b6000602082019050611c776000830184611c53565b92915050565b611c8681611acc565b8114611c9157600080fd5b50565b600081359050611ca381611c7d565b92915050565b600060208284031215611cbf57611cbe611a3f565b5b6000611ccd84828501611c94565b91505092915050565b600081519050919050565b600082825260208201905092915050565b60005b83811015611d10578082015181840152602081019050611cf5565b83811115611d1f576000848401525b50505050565b6000601f19601f8301169050919050565b6000611d4182611cd6565b611d4b8185611ce1565b9350611d5b818560208601611cf2565b611d6481611d25565b840191505092915050565b611d7881611a49565b82525050565b60006080830160008301518482036000860152611d9b8282611d36565b9150506020830151611db06020860182611d6f565b506040830151611dc36040860182611b9f565b506060830151611dd66060860182611b9f565b508091505092915050565b60006020820190508181036000830152611dfb8184611d7e565b905092915050565b600080fd5b600080fd5b7f4e487b7100000000000000000000000000000000000000000000000000000000600052604160045260246000fd5b611e4582611d25565b810181811067ffffffffffffffff82111715611e6457611e63611e0d565b5b80604052505050565b6000611e77611a35565b9050611e838282611e3c565b919050565b600067ffffffffffffffff821115611ea357611ea2611e0d565b5b611eac82611d25565b9050602081019050919050565b82818337600083830152505050565b6000611edb611ed684611e88565b611e6d565b905082815260208101848484011115611ef757611ef6611e08565b5b611f02848285611eb9565b509392505050565b600082601f830112611f1f57611f1e611e03565b5b8135611f2f848260208601611ec8565b91505092915050565b600060208284031215611f4e57611f4d611a3f565b5b600082013567ffffffffffffffff811115611f6c57611f6b611a44565b5b611f7884828501611f0a565b91505092915050565b60008115159050919050565b611f9681611f81565b82525050565b6000602082019050611fb16000830184611f8d565b92915050565b600082825260208201905092915050565b6000611fd382611cd6565b611fdd8185611fb7565b9350611fed818560208601611cf2565b611ff681611d25565b840191505092915050565b6000608082019050818103600083015261201b8187611fc8565b905061202a6020830186611c53565b6120376040830185611ade565b6120446060830184611ade565b95945050505050565b600060608201905081810360008301526120678186611fc8565b90506120766020830185611c53565b6120836040830184611ade565b949350505050565b600081519050919050565b600082825260208201905092915050565b6000819050602082019050919050565b600060808301600083015184820360008601526120d48282611d36565b91505060208301516120e96020860182611d6f565b5060408301516120fc6040860182611b9f565b50606083015161210f6060860182611b9f565b508091505092915050565b600061212683836120b7565b905092915050565b6000602082019050919050565b60006121468261208b565b6121508185612096565b935083602082028501612162856120a7565b8060005b8581101561219e578484038952815161217f858261211a565b945061218a8361212e565b925060208a01995050600181019050612166565b50829750879550505050505092915050565b600060208201905081810360008301526121ca818461213b565b905092915050565b600080604083850312156121e9576121e8611a3f565b5b600083013567ffffffffffffffff81111561220757612206611a44565b5b61221385828601611f0a565b925050602061222485828601611c94565b9150509250929050565b600081519050919050565b600082825260208201905092915050565b6000819050602082019050919050565b600060608301600083015184820360008601526122778282611d36565b915050602083015161228c6020860182611d6f565b50604083015161229f6040860182611b9f565b508091505092915050565b60006122b6838361225a565b905092915050565b6000602082019050919050565b60006122d68261222e565b6122e08185612239565b9350836020820285016122f28561224a565b8060005b8581101561232e578484038952815161230f85826122aa565b945061231a836122be565b925060208a019950506001810190506122f6565b50829750879550505050505092915050565b6000602082019050818103600083015261235a81846122cb565b905092915050565b7f4e487b7100000000000000000000000000000000000000000000000000000000600052603260045260246000fd5b7f4e487b7100000000000000000000000000000000000000000000000000000000600052601160045260246000fd5b60006123cb82611a49565b91507fffffffffffffffffffffffffffffffffffffffffffffffffffffffffffffffff8214156123fe576123fd612391565b5b600182019050919050565b7f53656e646572206e6f7420617574686f72697a65642e00000000000000000000600082015250565b600061243f601683611fb7565b915061244a82612409565b602082019050919050565b6000602082019050818103600083015261246e81612432565b9050919050565b7f4e487b7100000000000000000000000000000000000000000000000000000000600052602260045260246000fd5b600060028204905060018216806124bc57607f821691505b602082108114156124d0576124cf612475565b5b50919050565b7f20596f75206e6f742069732061204d616e616765720000000000000000000000600082015250565b600061250c601583611fb7565b9150612517826124d6565b602082019050919050565b6000602082019050818103600083015261253b816124ff565b905091905056fea2646970667358221220b1065ee46888181609ae4af5c374b8255445de6da39b748d7b2784958b654e9364736f6c634300080b0033",
  "immutableReferences": {},
  "source": "// SPDX-License-Identifier: MIT\r\npragma solidity >=0.4.22 <0.9.0;\r\nimport \"./Ownable.sol\";\r\n\r\ncontract ManagerOgani is Ownable {\r\n    uint256 public transactionCount;\r\n    uint256 public orderNumber;\r\n    mapping (uint => PaymentObject) public listPayments;\r\n    mapping (uint => UserPayment) public listUserOrder;\r\n    mapping (address => uint256) public IndexUsers;\r\n    mapping (uint256 => address) public AddressUsers;\r\n    mapping (address => bool) public includeUser;\r\n    receive() external payable {}\r\n    fallback() external payable {}\r\n    struct PaymentObject {\r\n        string idProduct;\r\n        uint256 totalPayment;\r\n        address supplier;\r\n        address currentAdmin;\r\n    } \r\n    struct UserPayment{\r\n        string idOrder;\r\n        uint256 totalPayment;\r\n        address userAddress;\r\n    }\r\n    function getBalance() public view returns(uint) {\r\n        return address(this).balance;\r\n    }\r\n    function userPaymentOrder(string memory _idOrder) public payable {\r\n       UserPayment memory newUserOrder = UserPayment({\r\n            idOrder: _idOrder,\r\n            totalPayment: msg.value,\r\n            userAddress: msg.sender\r\n        });\r\n        if(!includeUser[msg.sender]){\r\n            uint256 index = orderNumber++;\r\n            includeUser[msg.sender] = true;\r\n            IndexUsers[msg.sender] = index;\r\n            AddressUsers[index]= msg.sender;\r\n            listUserOrder[index] = newUserOrder;\r\n        }else{\r\n            uint256 IndexUser;\r\n            for (uint i = 0; i < orderNumber; i++) {\r\n               address findIndexuser = AddressUsers[i];\r\n               if(findIndexuser == msg.sender){\r\n                    IndexUser= i;\r\n               }\r\n            }\r\n            listUserOrder[IndexUser]= newUserOrder ;\r\n        }\r\n       \r\n    }\r\n    // function getPaymentOrderUser() public view returns (UserPayment[] memory){\r\n    //     UserPayment[]  memory listOrder  = new UserPayment[](orderNumber);\r\n    //     for (uint i = 0; i < orderNumber; i++) {\r\n    //        uint currentUser  = listUser[msg.sender];\r\n    //        if(currentUser == i)\r\n    //        { \r\n    //         UserPayment storage currentObject = listUserOrder[i];\r\n    //         listOrder[i] = currentObject;\r\n    //        }\r\n    //     }\r\n    //     return listOrder;\r\n    // }\r\n    function getAllPaymentOrder() public view returns (UserPayment[] memory){\r\n        UserPayment[]  memory listOrder  = new UserPayment[](orderNumber);\r\n        for (uint i = 0; i < orderNumber; i++) {\r\n            UserPayment storage currentObject = listUserOrder[i];\r\n            listOrder[i]= currentObject;\r\n        }\r\n        return listOrder;\r\n    }\r\n   \r\n    \r\n    function transferToSupplier(string memory _idProduct, address _supplier) public payable includeManagementList(msg.sender) {\r\n        listPayments[transactionCount] = PaymentObject(_idProduct,msg.value,_supplier,msg.sender);\r\n        transactionCount++;\r\n        payable(_supplier).transfer(msg.value);\r\n    }\r\n    function  getTransaction(uint256 index) public view returns (PaymentObject memory){\r\n        PaymentObject[]    memory listTransaction = new PaymentObject[](transactionCount);\r\n        for (uint i = 0; i < transactionCount; i++) {\r\n            PaymentObject storage currentObject = listPayments[i];\r\n            listTransaction[i] = currentObject;\r\n        }\r\n        return listTransaction[index];\r\n    }\r\n    function getAllTransaction () external view returns (PaymentObject[] memory){\r\n        PaymentObject[]  memory listTransaction = new PaymentObject[](transactionCount);\r\n        for (uint i = 0; i < transactionCount; i++) {\r\n            PaymentObject storage currentObject = listPayments[i];\r\n            listTransaction[i] = currentObject;\r\n        }\r\n        return listTransaction;\r\n    }\r\n    \r\n    \r\n    function withdraw(address _to) external payable{\r\n        payable(_to).transfer(msg.value);\r\n    }\r\n    function withdrawMoneyTo(address payable _to) public {\r\n        _to.transfer(getBalance());\r\n    }\r\n    \r\n}",
  "sourcePath": "C:\\Users\\nguye\\OneDrive\\Desktop\\DACS5\\Ecom-Block-V2\\contracts\\ManagerOgani.sol",
  "compiler": {
    "name": "solc",
    "version": "0.8.11+commit.d7f03943.Emscripten.clang"
  },
  "schemaVersion": "3.4.4",
  "updatedAt": "2022-04-14T12:32:49.873Z",
  "networkType": "ethereum",
  "devdoc": {
    "kind": "dev",
    "methods": {
      "isOwner()": {
        "returns": {
          "_0": "true if `msg.sender` is the owner of the contract."
        }
      },
      "owner()": {
        "returns": {
          "_0": "the address of the owner."
        }
      },
      "renounceOwnership()": {
        "details": "Allows the current owner to relinquish control of the contract."
      },
      "transferOwnership(address)": {
        "details": "Allows the current owner to transfer control of the contract to a newOwner.",
        "params": {
          "newOwner": "The address to transfer ownership to."
        }
      }
    },
    "version": 1
  },
  "userdoc": {
    "kind": "user",
    "methods": {
      "renounceOwnership()": {
        "notice": "Renouncing to ownership will leave the contract without an owner. It will not be possible to call the functions with the `onlyOwner` modifier anymore."
      }
    },
    "version": 1
  }
}